:1000000001C1000011C100000FC100000DC10000BE
:100010000BC1000009C1000007C1000005C10000BC
:1000200003C1000001C10000FFC00000FDC00000CE
:10003000FBC00000F9C00000F7C00000F5C00000E0
:10004000F3C00000F1C00000EFC00000EDC00000F0
:10005000EBC00000E9C00000E7C00000CFC1000015
:10006000E3C00000E1C00000DFC00000DDC0000010
:10007000DBC00000D9C00000D7C00000D5C0000020
:10008000D3C00000D1C00000CFC00000CDC0000030
:10009000CBC00000C9C00000C7C00000C5C0000040
:1000A000C3C00000C1C00000BFC00000BDC0000050
:1000B000BBC00000B9C00000B7C00000B5C0000060
:1000C000B3C00000B1C00000AFC00000ADC0000070
:1000D000ABC00000A9C00000A7C00000A5C0000080
:1000E000A3C0000000002100240027002A002D00EA
:1000F0003000330001010000040107010A01000083
:1001000020002300260029002C002F0032000001CF
:10011000000003010601090100002200250028005B
:100120002B002E00310034000201000005010801FF
:100130000B0105050505070508080808020202026B
:100140000A0A080804040404010101010101010173
:100150000303030303030303040707070C0C0C0C3E
:100160000C0C0C0C02020202060606060606060627
:100170000B0B0B0B0B0B0B0B0102102020080810B4
:100180002040102040800201020108040201010207
:1001900004081020408080402010080402018004E0
:1001A000020180402010080402010804020101023B
:1001B0000408102040800102040810204080000044
:1001C0000A0B02090C0D0E080703040100000000D1
:1001D000000000000000000000000000000000001F
:1001E00000000000000000000000121110000000DC
:1001F00000000000000000000000000000000000FF
:100200000000000011241FBECFEFD1E2DEBFCDBF42
:1002100000E00CBF22E0A0E0B2E001C01D92AD32D0
:10022000B207E1F735D130C3EBCE8150823108F00F
:1002300059C0E82FF0E08827E05EFE4F8F4F1CC3C7
:1002400040014401320138013C01720147014D0176
:10025000510157015B015F016501690172016D0187
:1002600073017701809180008F77809380000895DB
:10027000809180008F7DF9CF80918000877FF5CFBE
:1002800084B58F7784BD089584B58F7DFBCF809131
:10029000B0008F778093B00008958091B0008F7D7B
:1002A000F9CF809190008F7780939000089580918E
:1002B00090008F7DF9CF80919000877FF5CF80915E
:1002C000A0008F778093A00008958091A0008F7D7B
:1002D000F9CF8091A000877FF5CF809120018F77A3
:1002E000809320010895809120018F7DF9CF809126
:1002F0002001877FF5CF1F93CF93DF93EBECF1E0E5
:100300009491E5E8F1E0D491EFE3F1E0C491CC23DE
:10031000B1F0182F992311F0892F87DFEC2FF0E02F
:10032000EE0FFF1FE85EFE4FA591B4918FB7F894D2
:10033000EC91111108C0D095DE23DC938FBFDF91C3
:10034000CF911F910895DE2BF8CFCF93DF93282F05
:1003500030E0F901E254FE4F8491F901E858FE4F74
:10036000D491F901EE5CFE4FC491CC2399F0811138
:100370005CDFEC2FF0E0EE0FFF1FE250FF4FA59186
:10038000B491EC91ED2381E090E009F480E0DF91FD
:10039000CF91089580E090E0FACFCF93DF9390E083
:1003A000FC01E858FE4F24918E5C9E4FFC01849125
:1003B0008823D1F090E0880F991FFC01EC51FF4F8A
:1003C000A591B491FC01E85EFE4FC591D4916111F5
:1003D0000EC09FB7F8948C91E22FE0958E238C93FA
:1003E0002881E223E8839FBFDF91CF9108958FB7E3
:1003F000F894EC91E22BEC938FBFF6CF1F920F9203
:100400000FB60F9211242F933F938F939F93AF9327
:10041000BF938091290290912A02A0912B02B09162
:100420002C023091280223E0230F2D3758F5019636
:10043000A11DB11D209328028093290290932A02C6
:10044000A0932B02B0932C0280912402909125025C
:10045000A0912602B09127020196A11DB11D8093A3
:10046000240290932502A0932602B0932702BF9105
:10047000AF919F918F913F912F910F900FBE0F9051
:100480001F90189526E8230F0296A11DB11DD2CF0B
:10049000CF93DF931F921F92CDB7DEB7789484B5C8
:1004A000826084BD84B5816084BD85B5826085BD70
:1004B00085B5816085BD80916E00816080936E00FE
:1004C00010928100809181008260809381008091F0
:1004D00081008160809381008091800081608093A1
:1004E00080008091B10084608093B1008091B00061
:1004F00081608093B0008091910082608093910030
:100500008091910081608093910080919000816042
:10051000809390008091A10082608093A1008091DF
:10052000A10081608093A1008091A00081608093F0
:10053000A00080912101826080932101809121019E
:10054000816080932101809120018160809320014E
:1005500080917A00846080937A0080917A00826032
:1005600080937A0080917A00816080937A008091F4
:100570007A00806880937A001092C10061E08DE07B
:100580000CDF60E080E009DF60E081E006DF80E012
:10059000B2DE8BE192E09A83898380E092E09093CF
:1005A00018028093170281E090E0A0E0B0E0809311
:1005B000130290931402A0931502B09316021092A6
:1005C0000A021092090283E192E090930E02809356
:1005D0000D02CE01019690931A0280931902109297
:1005E0001E0210921D0210921F0210922002109201
:1005F00023021092220281E08093210281E090E0A8
:1006000090931C0280931B0280E0682E80E0782E7D
:1006100080E09BDE892B19F081E080931F0281E04E
:1006200094DE892B19F091E090931F028FB7F89414
:10063000C0902902D0902A02E0902B02F0902C0268
:100640008FBF80910F0290911002A0911102B09182
:100650001202C0920F02D0921002E0921102F092A8
:100660001202C81AD90AEA0AFB0A10E000E0812C3B
:10067000912C540140911302509114026091150283
:1006800070911602A0911702B09118028416950677
:10069000A606B706ECF010922102109222021092E8
:1006A0001E0210921D0220912302E0911F02309140
:1006B000200280911B0290911C028130910509F467
:1006C0005CC08230910509F4B6C020E030E087C0FC
:1006D000A00FB11F19966D917C911A976115710544
:1006E00009F443C015962D913D914D915C91189759
:1006F0002D903D904D905C90139722153305440545
:1007000055059CF52C0D3D1D4E1D5F1D15962D9319
:100710003D934D935C931897221533054405550579
:1007200024F11D96ED91FC911E970680F781E02D36
:100730001B968D919C911995E0911702F0911802EA
:10074000E00FF11F8481882381F085819681A78144
:10075000B0854081518162817381841B950BA60B0A
:10076000B70B85839683A783B087AFEF8A1A9A0A5F
:10077000AA0ABA0A015F1F4F7DCFEE2309F454C0C5
:1007800000E010E0980104171507260737071CF54D
:10079000FD010F5F1F4F2F4F3F4F1F9681859285A1
:1007A000892B89F783E292E09287818780E197E243
:1007B000A0E0B0E080839183A283B3831482ABE195
:1007C000B2E0B487A38783E192E09687858715829C
:1007D00016821782108620E031E082E090E090934C
:1007E0001C0280931B02A1E0B0E0B0931E02A09314
:1007F0001D02309322022093210210921F021092B8
:10080000200210922302222311F081E074DD8091F6
:100810002202882311F080E06EDD6114710409F476
:10082000F7CE0E940000F4CE20E03323C1F230E086
:1008300083E090E0D4CF222309F447CF00E010E01A
:10084000980104171507260737078CF4FD010F5F81
:100850001F4F2F4F3F4F1F96E184F28493E2E9161A
:1008600092E0F90671F7128611861486138621E04C
:1008700030E081E090E0B3CFEE0FFF1F881F8BBF09
:0C0880000790F691E02D1994F894FFCF3A
:00000001FF
