:100000000C9461000C9473000C9473000C947300B6
:100010000C9473000C9473000C9473000C94730094
:100020000C9473000C9473000C9473000C94730084
:100030000C9473000C9473000C9473000C94730074
:100040000C94F4020C9473000C9473000C947300E1
:100050000C9473000C9473000C9473000C94730054
:100060000C9473000C94730000000008000201005F
:100070000003040700000000000000000102040863
:100080001020408001020408102001020408102002
:10009000040404040404040402020202020203032E
:1000A00003030303000000002300260029000000D2
:1000B0000000250028002B0000000000240027007D
:1000C0002A0011241FBECFEFD8E0DEBFCDBF22E053
:1000D000A0E0B1E001C01D92AB34B207E1F70E948D
:1000E000E5020C9446040C940000EF920F931F93CA
:1000F000E02E89019A01AB01BC018CE292E00E94E2
:10010000AD011F910F91EF9008958CE292E00C9455
:10011000FA01662311F061E001C060E086E00C9412
:10012000E7030F931F9360E083E00E94AE0361E05A
:1001300086E00E94AE030BE911E024E130E040E0EC
:1001400050E060E071E08CE292E00E942E0284E3D5
:1001500092E00E940F0184E392E01F910F910C94B2
:100160001901CF92DF92EF92FF920E943E036B0142
:100170007C0183E00E941D04892B21F084E392E03E
:100180000E94A90140913E0250913F0260914002BD
:100190007091410280913A0290913B02A0913C0201
:1001A000B0913D02452B462B472B59F0AC01BD01C8
:1001B000465F5F4F6F4F7F4FC416D506E606F706C2
:1001C00048F1B701A601481B590B6A0B7B0B8CE267
:1001D00092E00E945B0284E392E00E941F01C092C1
:1001E0003A02D0923B02E0923C02F0923D028091B2
:1001F0003E0290913F02A0914002B09141020196CF
:10020000A11DB11D80933E0290933F02A093400236
:10021000B0934102FF90EF90DF90CF900895FC01E2
:1002200082E090E09183808313821282148215828F
:100230000895FC01118210821382128208958F9218
:100240009F92AF92BF92CF92DF92EF92FF920F9365
:10025000CF93DF93EC011B821A8282E0C82ED12C4F
:100260007E0185E0E80EF11C88248394912C8A811C
:100270009B81892B09F051C0A880B980A114B104D9
:1002800029F081E0A816B104C1F041C08C81882317
:10029000F1F1D982C8821B821A8261E0CE010E94EC
:1002A000890000E028E833E140E050E0B701CE01EA
:1002B0000E9475009982888228C08D81882379F0F8
:1002C000D982C8821B821A82B701CE010E948500A2
:1002D00060E0CE010E9489001982188216C08C81CC
:1002E0008823A9F0D982C8821B821A82B701CE0165
:1002F0000E94850000E028E833E140E050E0B701CB
:10030000CE010E947500B982A8821B821A828A815E
:100310009B8101969B838A83AACF1C821D82DF91D9
:10032000CF910F91FF90EF90DF90CF90BF90AF9063
:100330009F908F9008959C012B5F3F4F621773072A
:100340003CF006966817790718F481E0FB0180837A
:10035000089521E0FC01248308954F925F926F92EB
:100360007F92AF92BF92CF92DF92EF92FF920F9364
:100370001F93CF93CE2DDC014D905D906D907C90BE
:10038000A12CB12CC12CD12C7601C414D504E604C7
:10039000F70414F5DC011496ED91FC911597EA0D24
:1003A000FB1DBFEFCB1ADB0AEB0AFB0AAFE0AA0E7C
:1003B000B11CA185B285AB2B41F7528741870083E1
:1003C000118322833383C4837487638796878587E9
:1003D0001582168217821086CF911F910F91FF9080
:1003E000EF90DF90CF90BF90AF907F906F905F9035
:1003F0004F900895CF92DF92EF92FF920F931F9349
:10040000CF93DF936B01EC01088119812A813B8135
:10041000A0E0B0E040E050E0BA01401751076207A9
:1004200073079CF4EC01EC81FD81EA0FFB1F4F5F29
:100430005F4F6F4F7F4F1F96E184F284EC14FD04F1
:1004400061F71286118614861386DF91CF911F9172
:100450000F91FF90EF90DF90CF900895CF92DF92B1
:10046000EF92FF920F931F93FC01DB01758364836E
:100470002083318342835383C12CD12C7601C21651
:10048000D306E406F50674F41A961C921E92199788
:100490001E96FC93EE931D978FEFC81AD80AE80AB0
:1004A000F80AEDCF178306831F910F91FF90EF900D
:1004B000DF90CF9008954F925F926F927F928F92CC
:1004C0009F92AF92BF92CF92DF92EF92FF920F93E3
:1004D0001F93CF93DF93EC014A015B0100E010E032
:1004E000C12CD12C760188819981AA81BB81C81643
:1004F000D906EA06FB060CF056C0AC81BD81A00F00
:10050000B11F19966D917C911A976115710509F4C7
:1005100042C015962D913D914D915C9118974D904B
:100520005D906D907C901397241535054605570511
:1005300094F5280D391D4A1D5B1D15962D933D938D
:100540004D935C93189724153505460557051CF106
:100550001D96ED91FC911E970680F781E02D1B966C
:100560008D919C911C970995EC81FD81E00FF11F05
:100570008481882381F085819681A781B08540811F
:10058000518162817381841B950BA60BB70B858308
:100590009683A783B0878FEFC81AD80AE80AF80AAB
:1005A000015F1F4FA0CFDF91CF911F910F91FF905F
:1005B000EF90DF90CF90BF90AF909F908F907F9003
:1005C0006F905F904F90089508950E944A030E9493
:1005D000E4020E949100C0E0D0E00E94B1002097A8
:1005E000E1F30E940000F9CF1F920F920FB60F9215
:1005F00011242F933F938F939F93AF93BF93809139
:10060000430290914402A0914502B091460230917C
:10061000420223E0230F2D3720F40196A11DB11DC6
:1006200005C026E8230F0296A11DB11D20934202AA
:100630008093430290934402A0934502B0934602F4
:100640008091470290914802A0914902B0914A02DC
:100650000196A11DB11D8093470290934802A0937B
:100660004902B0934A02BF91AF919F918F913F9100
:100670002F910F900FBE0F901F9018952FB7F894E1
:10068000609143027091440280914502909146022C
:100690002FBF0895789484B5826084BD84B581604D
:1006A00084BD85B5826085BD85B5816085BDEEE67A
:1006B000F0E0808181608083E1E8F0E01082808159
:1006C00082608083808181608083E0E8F0E08081C7
:1006D00081608083E1EBF0E0808184608083E0EBE7
:1006E000F0E0808181608083EAE7F0E080818460CF
:1006F000808380818260808380818160808380812B
:10070000806880831092C1000895833081F028F4BE
:10071000813099F08230A1F008958730A9F08830B7
:10072000B9F08430D1F4809180008F7D03C0809136
:1007300080008F7780938000089584B58F7702C002
:1007400084B58F7D84BD08958091B0008F7703C0FC
:100750008091B0008F7D8093B0000895CF93DF9398
:1007600090E0FC01E458FF4F2491FC01E057FF4F5B
:100770008491882349F190E0880F991FFC01E85487
:10078000FF4FA591B49182559F4FFC01C591D49123
:100790009FB7611108C0F8948C91209582238C93A7
:1007A000888182230AC0623051F4F8948C91322FF0
:1007B000309583238C938881822B888304C0F8949E
:1007C0008C91822B8C939FBFDF91CF9108950F93D3
:1007D0001F93CF93DF931F92CDB7DEB7282F30E062
:1007E000F901E859FF4F8491F901E458FF4F149142
:1007F000F901E057FF4F04910023C9F0882321F04D
:1008000069830E9485036981E02FF0E0EE0FFF1FEE
:10081000E255FF4FA591B4919FB7F8948C91611167
:1008200003C01095812301C0812B8C939FBF0F9033
:10083000DF91CF911F910F910895CF93DF93282FD0
:1008400030E0F901E859FF4F8491F901E458FF4F76
:10085000D491F901E057FF4FC491CC2391F081115D
:100860000E948503EC2FF0E0EE0FFF1FEC55FF4FC9
:10087000A591B4912C912D2381E090E021F480E0AA
:1008800002C080E090E0DF91CF910895F894FFCF0F
:00000001FF
