:10000000D3C200000C94EF080C94C4080C94990817
:100010000C946E080C9443080C941808DEC700007A
:10002000B1C70000F2C20000F0C20000EEC2000042
:100030000C94BD12EAC20000E8C20000E6C2000053
:10004000E4C20000E2C20000E0C20000DEC2000024
:10005000DCC20000DAC20000D8C2000049C70000BC
:10006000D4C200000C9443090C941A09CEC20000BB
:10007000CCC20000CAC20000C8C20000C6C2000054
:10008000C4C20000C2C20000C0C20000BEC2000064
:10009000BCC20000BAC20000B8C20000B6C2000074
:1000A000B4C20000B2C20000B0C20000AEC2000084
:1000B000ACC20000AAC20000A8C20000A6C2000094
:1000C000A4C20000A2C20000A0C200009EC20000A4
:1000D0009CC200009AC2000098C2000096C20000B4
:1000E00094C2000000002100240027002A002D00F7
:1000F0003000330001010000040107010A01000083
:100100002200250028002B002E00310034000201BF
:100110000000050108010B01050505050705080894
:100120000808020202020A0A080804040404010181
:100130000101010101010303030303030303040796
:1001400007070C0C0C0C0C0C0C0C0202020206062D
:100150000606060606060B0B0B0B0B0B0B0B010220
:1001600010202008081020401020408002010201C9
:100170000804020101020408102040808040201081
:1001800008040201800402018040201008040201DA
:100190000804020101020408102040800102040842
:1001A0001020408000000A0B02090C0D0E08070306
:1001B000040100000000000000000000000000003A
:1001C000000000000000000000000000000000002F
:1001D00012111000000000000000000000000000EC
:1001E00000000000000000000000CF93DF9300D06B
:1001F00000D000D01F92CDB7DEB7E0915F03F09141
:100200006003F08010E000E0FF2029F00580F68117
:10021000E02D008111810E94B6090E94AC096C0199
:1002200080915B0390915C03C816D90608F07EC0EC
:100230000E943F0ED0925C03C0925B030E94760C3A
:1002400000911B0410911C041A86198680E0680135
:10025000B1E1CB0ED11C0FB6F8940F92F801F28CDD
:10026000FF2009F41BC1448D4423C1F050E0868176
:100270009781840F951F9783868324813581821708
:10028000930720F08081918197838683D801169609
:100290006D917C91CE0101960E949114FA94F8011F
:1002A000F28E8085882339F0C80108960E940B0AD7
:1002B00081110E94B00B0F900FBED980D7FCC0CF28
:1002C0000C811D81D8011A968D919C91892B21F06A
:1002D000C80102960E94C7090E94AC097C01809166
:1002E0005B0390915C03E816F90610F40E943F0E40
:1002F000F0925C03E0925B03B9E0BD1508F4A0CF77
:10030000ED2DDD0CFF0BD80152969C918827E45708
:10031000FE4F8F4F0C94641310021002100249021A
:10032000340243021002100249023402D0925C03EC
:10033000C0925B03FF20A1F1C016D106C8F10E9454
:10034000760CE0915F03F09160030580F681E02D6B
:10035000E680F780C70102960E94C709D70152962E
:100360008C91529782FF18C01C966D917C91600F02
:10037000711F9801A601C7010E94BD0A882329F0B8
:10038000A80160E0C7010E94190ED7015096ED91B7
:10039000FC91C701199554CF8E7FF701828BF5CF61
:1003A000E0915D03F0915E038081BB24B3948111E1
:1003B000B12CE0901B04F0901C040FB6F8940F923F
:1003C000F701858D8F3F09F4158ED7015E968C91CC
:1003D0005E978F3F11F45E961C920F900FBEF7014F
:1003E000828D811113C06091720270917302645FFB
:1003F0007F4FC7014196EFD7C8018C199D09BB20DB
:1004000011F08FEF9FEF6B2D0E94E60AC7010E944B
:10041000470A0E94760C811113CF0E94B00B10CFB7
:100420009160F801928BCA80DB80648575856C0DC4
:100430007D1D9601A701C8010E94BD0A882309F409
:10044000FFCED8015096ED91FC91C8011995F801A5
:10045000828982FFF5CE448555854C0D5D1D60E097
:10046000C8010E94190EECCE9160F801928B6A814E
:100470007B81758764876E0D7F1D9701A701C80179
:100480000E94BD0ADDCE91FD04C0C8010E945E102D
:10049000D7CE9E7FD80152969C93D2CE29853A859D
:1004A000232B19F40F900FBEA8CE811109C08091A3
:1004B0001F048E8380911D0490911E0498878F8362
:1004C0000F900FBE53D70FB6F8940F92D8015D96D8
:1004D0008C915D978F3F11F45D961C92F801868D8B
:1004E0008F3F09F4168E0F900FBEBE01675F7F4FDE
:1004F000CE010696FED6811121C0C8013DD78823C2
:10050000C1F0E984FA846091720270917302645FB1
:100510007F4FC601FCD761E0C7010E94E60AC8010F
:10052000B6D70E94760C811102C00E94B00B81E008
:1005300092CEC801ACD70E94760CF9CFC801A7D7DC
:100540000E94760CC80118D7882389F356CE809173
:100550001F03811108C080912004823010F00E9496
:10056000B00B0ED2F4CF0FB6F8940F92E0912503A2
:10057000F0912603C681D781CE01029608D78091DB
:10058000410381508093410380911F0381508093E8
:100590001F030F900FBE8F89988D0E945E10CE01B1
:1005A0000E945E10D4CF371311241FBECFEFD1E2CB
:1005B000DEBFCDBF00E00CBF12E0A0E0B2E0E6E499
:1005C000F9E200E00BBF02C007900D92A237B1071D
:1005D000D9F724E0A2E7B2E001C01D92A934B20726
:1005E000E1F712E0C4EDD2E000E006C02197010976
:1005F000802FFE010E946413C33DD10780E00807ED
:10060000A9F70E94BF120C94A114FACC382FE1EB89
:10061000F1E08491EBE6F1E02491E5E2F1E09491E0
:10062000992309F435C0882311F181508231F8F4FF
:10063000E82FF0E08827E05EFC4F8F4F0C946413A6
:1006400051035503320349034D03370358035E0337
:10065000620368036C03700376037A0337037E0337
:1006600084038803809180008F7780938000E92F36
:10067000F0E0EE0FFF1FE250FF4FA591B4918FB74E
:10068000F894EC91311148C020952E232C938FBF04
:100690000895809180008F7DE8CF80918000877FD2
:1006A000E4CF84B58F7784BDE2CF84B58F7DFBCF57
:1006B0008091B0008F778093B000D9CF8091B00047
:1006C0008F7DF9CF809190008F7780939000CFCF6E
:1006D000809190008F7DF9CF80919000877FF5CF3A
:1006E0008091A0008F778093A000C1CF8091A0005F
:1006F0008F7DF9CF8091A000877FF5CF8091200179
:100700008F7780932001B3CF809120018F7DF9CF27
:1007100080912001877FF5CF2E2BB8CFCF93DF9329
:1007200090E0FC01E25AFE4F2491885E9E4FFC014E
:1007300084918823D1F090E0880F991FFC01EC513F
:10074000FF4FA591B491FC01E250FF4FC591D491A8
:10075000623071F49FB7F8943C91822F8095832387
:100760008C93E8812E2B28839FBFDF91CF91089532
:100770008FB7F894EC912E2B2C938FBFF6CF089562
:10078000AF92BF92CF92DF92EF92FF920F931F939F
:10079000CF93DF936C017B018B01040F151FEB01DD
:1007A0005E01AE18BF08C017D10759F06991D60194
:1007B000ED91FC910190F081E02DC6011995892BF6
:1007C00079F7C501DF91CF911F910F91FF90EF90C5
:1007D000DF90CF90BF90AF900895FC01538D448D72
:1007E000252F30E0842F90E0821B930B541710F0DC
:1007F000CF96089501970895FC01918D828D9817E9
:1008000061F0A28DAE0FBF2FB11D5D968C91928DC0
:100810009F5F9F73928F90E008958FEF9FEF0895F1
:10082000FC01918D828D981731F0828DE80FF11DBA
:10083000858D90E008958FEF9FEF0895FC01918DD5
:10084000228D892F90E0805C9F4F821B91098F73CE
:100850009927089583E793E0F1DF21E0892B09F4DC
:1008600020E0822F0895FC01A48DA80FB92FB11D9F
:10087000A35ABF4F2C91848D90E001968F739927D6
:10088000848FA689B7892C93A089B1898C918370B4
:1008900080648C93938D848D981306C00288F389AD
:1008A000E02D80818F7D80830895EF92FF920F93DA
:1008B0001F93CF93DF93EC0181E0888F9B8D8C8D0C
:1008C00098131AC0E889F989808185FF15C09FB700
:1008D000F894EE89FF896083E889F98980818370C3
:1008E000806480839FBF81E090E0DF91CF911F9172
:1008F0000F91FF90EF900895F62E0B8D10E00F5F93
:100900001F4F0F731127E02E8C8D8E110BC00FB669
:1009100007FCFACFE889F989808185FFF5CFCE0100
:10092000A2DFF2CFEB8DEC0FFD2FF11DE35AFF4F4D
:10093000F0829FB7F8940B8FEA89FB8980818062EF
:10094000D0CFCF93DF93EC01888D8823B1F0AA89B3
:10095000BB89E889F9898C9185FD03C0808186FD7A
:100960000CC00FB607FCF7CF8C9185FFF2CF8081CA
:1009700085FFEDCFCE0177DFEACFDF91CF910895EC
:1009800080E090E0892B21F065DF81110E9400005A
:1009900080E090E0892B49F080E090E0892B29F0FD
:1009A0000E94000081110E94000080E090E0892BED
:1009B00049F080E090E0892B29F00E94000081112D
:1009C0000E94000080E090E0892B49F080E090E0F8
:1009D000892B29F00E94000081110C9400000895D9
:1009E000E0915703F09158038081811107C08FEF88
:1009F0009FEF90935603809355030895E09157031A
:100A0000F09158030580F681E02D0680F781E02DF6
:100A100082819381EECFCF92DF92EF92FF920F937C
:100A20001F93CF93DF93D0E0C0E0C12CD12C76018F
:100A30008091170390911803A0911903B0911A03A4
:100A4000C816D906EA06FB064CF0DF91CF911F913C
:100A50000F91FF90EF90DF90CF900895A0911B032E
:100A6000B0911C03AC0FBD1F19968D919C911A97E4
:100A7000009709F444C015964D915D916D917C915C
:100A800018970D911D912D913C9113974017510787
:100A900062077307A4F54C505E4F6F4F7F4F15965A
:100AA0004D935D936D937C931897401751076207A0
:100AB00073072CF11D96ED91FC911E970680F7812E
:100AC000E02DBC011B968D919C911995E0911B0323
:100AD000F0911C03EC0FFD1F8481882381F0858138
:100AE0009681A781B0854081518162817381841B89
:100AF000950BA60BB70B85839683A783B0878FEFE3
:100B0000C81AD80AE80AF80A2F9692CF81E0809393
:100B10001603089581E08093150308952F923F9264
:100B20004F925F926F927F928F929F92BF92CF92DD
:100B3000DF92EF92FF920F931F93CF93DF93FC010D
:100B40001682178213821282409117035091180364
:100B50006091190370911A0300911B03B0901C035C
:100B600011E09C01285F3F4F80EDC82E87E0D82E12
:100B7000E12CF12C97E1292E93E0392E88248394DF
:100B8000912C82819381892BA9F014821582108681
:100B9000DF91CF911F910F91FF90EF90DF90CF9059
:100BA000BF909F908F907F906F905F904F903F90FD
:100BB0002F900895808191818130910549F00297AD
:100BC00009F44DC082819381019693838283D9CFAA
:100BD00084818823D9F111821082802F9B2D412C92
:100BE000512C320144165506660677063CF5DC01A9
:100BF000CFEF4C1A5C0A6C0A7C0A0F961996CD91BD
:100C0000DC911A97CD2B71F71A963C932E93199776
:100C1000CD92DD92ED92FC92139714961C9214974C
:100C20001C96FC93EE931B971E963C922E921D975A
:100C300015961D921D921D921C921897178382E0A3
:100C400090E09183808313821282BCCF85818823B8
:100C500009F4B8CF83E090E091838083B3CF80859F
:100C6000882309F4AFCF11821082802F9B2D412C55
:100C7000512C32014416550666067706B4F4DC01A1
:100C8000CFEF4C1A5C0A6C0A7C0A0F961996CD912C
:100C9000DC911A972C173D0769F71A961C921E9241
:100CA00019971C961C921E921B9716839182808224
:100CB000CACF9C01285F3F4F621773074CF02F5F2C
:100CC0003F4F6217730720F421E0FB01208326CFFA
:100CD0000895EC0111E00E948A0E8091150388238B
:100CE00029F01C83CE011ADF1092150380911603A0
:100CF000882389F31D83CE0111DF10921603EBCFF9
:100D0000EC010E948A0E8E81882311F080E07EDC47
:100D10008F818823B1F381E079DCF3CFEF92FF92EA
:100D20000F93CF93DF93E0918303F091840382E0EC
:100D30008083E0917F03F09180031082E091810332
:100D4000F09182038FEC808310928B03E0918703F4
:100D5000F091880386E08083E0918503F09186031B
:100D6000808180618083E0918503F091860380819A
:100D700088608083E0918503F0918603808180689C
:100D80008083E0918503F091860380818F7D80834D
:100D90004CE050E065E372E083E793E0F1DC42E091
:100DA00050E062E472E083E793E0EADC62E082E034
:100DB000B5DC62E083E0B2DC8AE895E09093010262
:100DC0008093000280916A008C7F816080936A002A
:100DD000EC9A86E895E0909303028093020280915A
:100DE0006A00837F846080936A00ED9A61E08DE001
:100DF00095DC80E00BDC789484E792E090931C0310
:100E000080931B038AE090E0A0E0B0E0809317039A
:100E100090931803A0931903B0931A0310927E02C3
:100E200010927D0287E193E0909382028093810289
:100E300089E596E090931E0380931D0310920F03A3
:100E400010920E03109210031092110310921403CB
:100E50001092130381E08093120381E090E090935D
:100E60000D0380930C0383E190E00E946C10EC0171
:100E7000892BB1F01A8A0E94871085E492E0998349
:100E800088838FE190E09D878C871F861E868BE08C
:100E900095E0998B888B1B861A868A8984608A8B59
:100EA000D0930B03C0930A0357D2AC0161E0CE018B
:100EB000C0D6F12CE12C02E02CE033E040E850E019
:100EC00062E572E089E696E00E94E21001E02CE023
:100ED00033E040E850E061E672E080E896E00E948E
:100EE000E210DF91CF910F91FF90EF900C9445129B
:100EF0001F920F920FB60F9211242F933F938F934F
:100F00009F93AF93BF938091150490911604A09185
:100F10001704B09118043091140423E0230F2D37E7
:100F200058F50196A11DB11D20931404809315045A
:100F300090931604A0931704B093180480911004A2
:100F400090911104A0911204B09113040196A11D77
:100F5000B11D8093100490931104A0931204B093D8
:100F60001304BF91AF919F918F913F912F910F905B
:100F70000FBE0F901F90189526E8230F0296A11D13
:100F8000B11DD2CF1F920F920FB60F9211240BB644
:100F90000F922F933F934F935F936F937F938F9312
:100FA0009F93AF93BF93EF93FF93E0910E02F09165
:100FB0000F021995FF91EF91BF91AF919F918F9182
:100FC0007F916F915F914F913F912F910F900BBE49
:100FD0000F900FBE0F901F9018951F920F920FB693
:100FE0000F9211240BB60F922F933F934F935F9361
:100FF0006F937F938F939F93AF93BF93EF93FF93E1
:10100000E0910C02F0910D021995FF91EF91BF91C3
:10101000AF919F918F917F916F915F914F913F9190
:101020002F910F900BBE0F900FBE0F901F90189531
:101030001F920F920FB60F9211240BB60F922F939F
:101040003F934F935F936F937F938F939F93AF9350
:10105000BF93EF93FF93E0910202F0910302199581
:10106000FF91EF91BF91AF919F918F917F916F9180
:101070005F914F913F912F910F900BBE0F900FBE3C
:101080000F901F9018951F920F920FB60F92112478
:101090000BB60F922F933F934F935F936F937F9372
:1010A0008F939F93AF93BF93EF93FF93E0910002D1
:1010B000F09101021995FF91EF91BF91AF919F912E
:1010C0008F917F916F915F914F913F912F910F90F1
:1010D0000BBE0F900FBE0F901F9018951F920F928E
:1010E0000FB60F9211240BB60F922F933F934F938D
:1010F0005F936F937F938F939F93AF93BF93EF9380
:10110000FF93E0910A02F0910B021995FF91EF9184
:10111000BF91AF919F918F917F916F915F914F910F
:101120003F912F910F900BBE0F900FBE0F901F900D
:1011300018951F920F920FB60F9211240BB60F92B3
:101140002F933F934F935F936F937F938F939F93CF
:10115000AF93BF93EF93FF93E0910802F0910902E0
:101160001995FF91EF91BF91AF919F918F917F91D1
:101170006F915F914F913F912F910F900BBE0F9008
:101180000FBE0F901F9018951F920F920FB60F92DF
:1011900011240BB60F922F933F934F935F936F934E
:1011A0007F938F939F93AF93BF93EF93FF93E091C0
:1011B0000602F09107021995FF91EF91BF91AF914F
:1011C0009F918F917F916F915F914F913F912F915F
:1011D0000F900BBE0F900FBE0F901F9018951F928F
:1011E0000F920FB60F9211240BB60F922F933F93CD
:1011F0004F935F936F937F938F939F93AF93BF931F
:10120000EF93FF93E0910402F09105021995FF918D
:10121000EF91BF91AF919F918F917F916F915F916E
:101220004F913F912F910F900BBE0F900FBE0F90DB
:101230001F9018951F920F920FB60F9211240BB6A4
:101240000F922F933F934F935F936F937F938F935F
:101250009F93AF93BF93EF93FF9383E793E003DBF9
:10126000FF91EF91BF91AF919F918F917F916F917E
:101270005F914F913F912F910F900BBE0F900FBE3A
:101280000F901F9018951F920F920FB60F92112476
:101290000BB60F922F938F939F93EF93FF93E09151
:1012A0008303F09184038081E0918903F0918A03A4
:1012B00082FD1DC0908180918C038F5F8F73209180
:1012C0008D03821741F0E0918C03F0E0ED58FC4F64
:1012D000958F80938C03FF91EF919F918F912F9128
:1012E0000F900BBE0F900FBE0F901F90189580812E
:1012F000F2CFFC01DB010FB6F8940F9240911D0470
:1013000050911E042D913C9111972F3F3207E1F02F
:101310008181928160911F047081761719F04817BE
:101320005907C0F4481B590B4217530788F4241B74
:10133000350B2D933C9380911F04808380911D0475
:1013400090911E049283818380E00F900FBE0895D8
:101350001D921C9281E0F9CF0FB6F8940F92809104
:101360001D0490911E040F900FBE089580911904E2
:101370008F5F8093190408950FB6F8940F92FC01C3
:10138000928D0F900FBE81E0911180E00895CF9370
:10139000DF93FC01A085B185828193812481358111
:1013A000EC013D832C83C481D5819B838A83119674
:1013B0008D919C9112978E179F0721F41296DC93C2
:1013C000CE931197118610868C9181508C938C91BD
:1013D000DF91CF910895CF93DF939C01FB01DC0156
:1013E0001196CD91DC91D383C2838C819D819583AD
:1013F00084838C819D81DC0113967C936E9312977C
:101400007D836C8331872087F90180818F5F8083A2
:10141000DF91CF9108950F931F93CF93DF93DC015A
:101420001596ED91FC91C681D7818E01045F1F4F07
:10143000C801ADDF80911904811123C00A50110940
:10144000C801A5DF8E8990914404981710F4809309
:101450004404B9E08B9FC0011124B801805E9B4F0A
:10146000BADFE0917202F09173029E898689891732
:1014700060F481E080934203DF91CF911F910F913F
:101480000895B80183E493E0EBCF80E0F5CFEF92CD
:10149000FF920F931F93CF93DF93EC010FB6F89455
:1014A0000F921E8D7C0181E1E80EF11C01E0111606
:1014B000D4F08FEF8E8F0F900FBE0FB6F8940F926F
:1014C0001D8D7E0188E0E80EF11C01E01116ACF0E4
:1014D0008FEF8D8F0F900FBEDF91CF911F910F91E6
:1014E000FF90EF9008958989882319F3C70193DF4E
:1014F0008111009342031150DACF8885882341F38C
:10150000C70189DF8111009342031150DFCF0F9390
:101510001F93CF93DF938C01FB0180819181D801D0
:1015200013968F3F9807F1F4E801AF81B8851296C2
:101530008D919C91139793838283EC01FD83EC83BF
:10154000B583A4831396FC93EE93129711870087BB
:10155000F80180818F5F8083DF91CF911F910F9180
:101560000895D90112962D913C911397E901488174
:10157000598184179507A8F7DACFFC01738362833A
:10158000918780874617570788F0421B530B848545
:10159000958548175907C0F4BF016E5F7F4F809152
:1015A0005D0390915E03B3DF80E008954217530717
:1015B00018F46217730740F4BF016E5F7F4F80918C
:1015C0005F0390916003EFCF81E00895FF920F9346
:1015D0001F93CF93DF93EC01F62E00911D04109121
:1015E0001E0480917202909173020296D0DECF3F6A
:1015F000DC0781F4FF2071F0609172027091730238
:101600006E5F7F4F8CE493E0DF91CF911F910F913C
:10161000FF90E1CEC00FD11FE0917202F0917302F2
:10162000D383C2836091720270917302C017D10795
:1016300060F48091590390915A036E5F7F4FDF9160
:10164000CF911F910F91FF9062CF8091570390919E
:1016500058036E5F7F4F5BDF809155039091560377
:10166000C817D90720F4D0935603C0935503DF91D0
:10167000CF911F910F91FF900895FC0103969283E3
:1016800081832FEF3FEF3483238396838583908775
:10169000878310820895CF92DF92FF920F931F935A
:1016A000CF93DF93EC01FA8C4C8D411141C08881BE
:1016B0009981892B11F080E008C00C811D810115F2
:1016C000110569F480E01D821C82F394FA8EDF918B
:1016D000CF911F910F91FF90DF90CF900895F80167
:1016E00082A1815082A3268991A1291759F38111E2
:1016F000E9CF6801F2E0CF0ED11CC60148DEF80147
:1017000081A1868B24E030E0281B310935872487AE
:1017100090914404981710F480934404F9E08F9F4B
:10172000C0011124B601805E9B4F55DE81E0CBCF16
:1017300050E08A819B810E9491148C8D2A813B818B
:10174000820F932F911D9B838A832C813D81821769
:10175000930708F4B0CF888199819B838A83ABCFAC
:101760000F920FB6F8940F920BB60F920CB60F9221
:101770001F9211242F923F924F925F926F927F920D
:101780008F929F92AF92BF92CF92DF92EF92FF9291
:101790000F931F932F933F934F935F936F937F9379
:1017A0008F939F93AF93BF93CF93DF93EF93FF9369
:1017B000A0917202B09173020DB60D920EB60D9209
:1017C00080911904882321F081E0809342035FC057
:1017D00010924203A0917202B0917302E0917202E2
:1017E000F09173022D913C918789908D8217930718
:1017F000A8F0809172029091730280917202909190
:101800007302279A2F9A2FEF87EA91E621508040A2
:101810009040E1F700C000001F9AF5CF20914404EA
:1018200089E001C02150422F50E0849FF001859F44
:10183000F00D1124E05EFB4F9081992399F3A18173
:10184000B28112960D90BC91A02DB283A183289FE6
:10185000C00111248D5D9B4FA817B90729F412967A
:101860008D919C919283818389E0849FF001859F73
:10187000F00D1124E05EFB4F0180F281E02D8681A6
:101880009781909373028093720220934404A091F5
:101890007202B0917302CD91CDBFDD91DEBFFF9199
:1018A000EF91DF91CF91BF91AF919F918F917F91F8
:1018B0006F915F914F913F912F911F910F91FF90E9
:1018C000EF90DF90CF90BF90AF909F908F907F90E0
:1018D0006F905F904F903F902F901F900F900CBE95
:1018E0000F900BBE0F900FBE0F9008958F929F9296
:1018F000AF92BF92CF92DF92EF92FF920F931F931E
:10190000CF93DF930FB6F8940F9280911904815012
:101910008093190480911904882381F080E00F904E
:101920000FBEDF91CF911F910F91FF90EF90DF904D
:10193000CF90BF90AF909F908F900895809141037A
:10194000882361F3D0E0C0E029E0F22EEE24E39496
:1019500026C0E0914803F0914903C681D781CE01AA
:101960000C9615DD8E010E5F1F4FC80110DD8E89AC
:1019700090914404981710F4809344048F9DC00103
:101980001124B801805E9B4F26DDE0917202F09138
:1019900073029E898689981710F0E0924203809125
:1019A00043038111D6CFCD2B09F01AD8E090400324
:1019B000EE2009F451C089E0982E88248394CC2429
:1019C000CA94DC2C80911904811199C0C0911D0426
:1019D000D0911E042196D0931E04C0931D0420971D
:1019E000B9F4809157039091580320915903309195
:1019F0005A03309358032093570390935A038093CC
:101A0000590380911F048F5F80931F040E94F0048C
:101A10008091550390915603F12CC817D90708F00F
:101A200062C0E0917202F0917302E6899E9EF0011D
:101A30001124E05EFB4F8081823010F0FF24F3948C
:101A400080914203811101C0F11080924203EA9417
:101A5000E110B8CF1092400380914203882309F42B
:101A60005DCF7EDE81E05BCFE0915703F0915803BC
:101A70000580F681E02D06811781D80112968D919F
:101A80009C91C817D90728F4909356038093550367
:101A9000C8CF5801B2E0AB0EB11CC50178DCF8012B
:101AA00084899589892B19F0C8010C9670DCD801BE
:101AB00056968C9190914404981710F480934404A6
:101AC000899DC0011124B501805E9B4F84DCE091AB
:101AD0007202F0917302D80156969C9186899817EC
:101AE00010F0FF24F394E0915703F09158038081A4
:101AF0008111BACFD0925603C092550392CF8091F4
:101B000040038F5F80934003F12C9ACFAF92BF9236
:101B1000CF92DF92EF92FF920F931F93CF93DF93B9
:101B200000D01F921F92CDB7DEB78C017B011D82C2
:101B30001C8280E0680198E0C90ED11C0FB6F894B1
:101B40000F92F801228D938D2917F8F4B701C8017F
:101B5000A2DDF8019189992319F0C80141965BDC57
:101B60008111FEDD0F900FBE81E00F900F900F905E
:101B70000F900F90DF91CF911F910F91FF90EF90F9
:101B8000DF90CF90BF90AF9008952C813D81232BA3
:101B900021F40F900FBE80E0E8CF811109C0809141
:101BA0001F04898380911D0490911E049B838A8366
:101BB0000F900FBEDBDB0FB6F8940F92F801858D06
:101BC0008F3F09F4158EF801868D8F3F09F4168E2C
:101BD0000F900FBEBE016C5F7F4FCE01019689DB77
:101BE000811123C00FB6F8940F92F801928D838D66
:101BF0000F900FBE981315C0AC80BD80609172022B
:101C000070917302645F7F4FC60181DC61E0C501A2
:101C1000DDDCC8013CDC6ADE811101C0A1DD81E0B0
:101C20008DCFC80134DC62DEFACFC80130DC5EDE65
:101C3000B2CFCF93DF9300D01F921F92CDB7DEB704
:101C40009C0180911B0490911C040097B1F0698362
:101C50005B834A833D832C8320911A04BE016F5F0E
:101C60007F4F21112091190451DF0F900F900F9099
:101C70000F900F90DF91CF91089580E0F6CFEF9213
:101C8000FF920F931F93CF93DF93E0915F03F09147
:101C900060038081811113C080915D0390915E0388
:101CA0009093600380935F03F0935E03E0935D0382
:101CB000DF91CF911F910F91FF90EF9008950580D4
:101CC000F681E02D00811181C681D7817E0182E0FD
:101CD000E80EF11CC7015BDBE889F989CE01199593
:101CE0008A8982FFD2CF8C859D85800F911F08172E
:101CF000190758F49B838A83D987C887B7018091D5
:101D00005F039091600303DCC0CFA80160E0CE01C7
:101D100090DFBBCF2BDB60E083E090E057DCE6DDBB
:101D2000811101C01DCD08950F920FB6F8940F9246
:101D30000BB60F920CB60F921F9211242F923F9266
:101D40004F925F926F927F928F929F92AF92BF92CB
:101D5000CF92DF92EF92FF920F931F932F933F93B7
:101D60004F935F936F937F938F939F93AF93BF93A3
:101D7000CF93DF93EF93FF93A0917202B091730220
:101D80000DB60D920EB60D9213BE809119048111FD
:101D9000F2C080911D0490911E04019690931E0440
:101DA00080931D04009799F52091570330915803B3
:101DB0004091590350915A0350935803409357034D
:101DC00030935A032093590320911F042F5F2093CF
:101DD0001F04E0915703F09158032081211107C09F
:101DE0002FEF3FEF309356032093550310C0E0913F
:101DF0005703F09158030580F681E02D0680F781A6
:101E0000E02D228133813093560320935503209196
:101E10005503309156038217930710F420E09BC0BE
:101E200020E019E0E0915703F0915803308131111F
:101E300007C08FEF9FEF90935603809355038BC09D
:101E4000E0915703F09158030580F681E02D06805C
:101E5000F781E02D428153818417950728F4509330
:101E600056034093550377C0AF014E5F5F4FA28585
:101E7000B38564817581E680F780EB01FD82EC8299
:101E8000C681D7817B836A8311966D917C9112976D
:101E90004617570721F41296DC93CE9311971386B9
:101EA00012863C9131503C933C91A489B58910979E
:101EB000F9F066857785E088F188EB01FD82EC8298
:101EC000C089D1897B836A831196ED90FC9012972B
:101ED000BF01645F7F4FE616F70621F41296DC938C
:101EE000CE931197158A148A3C9131503C933C91C2
:101EF000A689309144043A1710F4A09344041A9F21
:101F0000D0011124BD01605E7B4F7B01DB01119686
:101F1000CD91DC91D583C4836C817D817783668389
:101F20006C817D81DB0113965C934E9312975D83E8
:101F30004C83F386E286E70138813F5F3883A091C6
:101F40007202B0917302468956963C91431708F489
:101F500069CF21E067CFE0917202F0917302E689C8
:101F6000D9E0ED9FF0011124E05EFB4F80818230CB
:101F700040F021E006C0809140038F5F80934003D2
:101F800020E080914203811103C0222309F467C03D
:101F900080911904882321F081E0809342035FC07F
:101FA00010924203A0917202B0917302E09172020A
:101FB000F09173022D913C918789908D8217930740
:101FC000A8F08091720290917302809172029091B8
:101FD0007302279A2F9A2FEF67EA71E6215060402B
:101FE0007040E1F700C000001F9AF5CF2091440433
:101FF00089E001C02150422F50E0849FF001859F6D
:10200000F00D1124E05EFB4F9081992399F3A1819B
:10201000B28112960D90BC91A02DB283A183289F0E
:10202000C00111248D5D9B4FA817B90729F41296A2
:102030008D919C919283818389E0849FF001859F9B
:10204000F00D1124E05EFB4F0180F281E02D8681CE
:102050009781909373028093720220934404A0911D
:102060007202B0917302CD91CDBFDD91DEBFFF91C1
:10207000EF91DF91CF91BF91AF919F918F917F9120
:102080006F915F914F913F912F911F910F91FF9011
:10209000EF90DF90CF90BF90AF909F908F907F9008
:1020A0006F905F904F903F902F901F900F900CBEBD
:1020B0000F900BBE0F900FBE0F900895CF93DF933C
:1020C000009739F0EC0152D9CE01A2D3DF91CF9124
:1020D0000DCCDF91CF910895CF93DF93EC0146D9DA
:1020E000CE01FAD2EC0102DC209769F4279A2F9AEC
:1020F0002FEF80E792E0215080409040E1F700C050
:1021000000001F9AF5CFCE01DF91CF910895CF93B4
:10211000DF930FB6F8940F9280911B0490911C04EA
:10212000892B09F04AC08AE693E0A7DA81E693E0BA
:10213000A4DA8AE693E09093600380935F0381E6DC
:1021400093E090935E0380935D0381E590E0C4DFAC
:10215000EC01009771F14F96998388838AE08B8F09
:1021600085E08C8F0FB6F8940F92888199812B8D22
:102170004C8DBC01249F600D711D11247D836C83E7
:102180001A8E9B838A832150330B429FB001439F59
:10219000700D1124860F971F9F838E838FEF8D8F75
:1021A0008E8FCE01089669DACE01419666DA0F90DD
:1021B0000FBED0931C04C0931B040F900FBEDF9181
:1021C000CF9108955F926F927F928F929F92AF927C
:1021D000BF92CF92DF92EF92FF920F931F93CF9314
:1021E000DF93782E892E562E672E6A01922E132F9A
:1021F000CA0172DF5C01892B09F424C188E290E0F6
:102200006BDFEC01892B09F41BC1B88EAF8AA601E4
:1022100065EA70E0C5018ED321E0C21AD108EF89CA
:10222000F88DEC0DFD1D652D762DCE0149969B0197
:10223000285F3F4FDB014D91BD01DC014D93CD0186
:10224000AB0141505109DA014C91442319F0621756
:10225000730781F718A20E8B09A31AA21B861A8690
:102260001D8A1C8AD987C88784E090E0801B910969
:102270009D878C87DB8BCA8B1BA21CA21DA21EA272
:102280001FA291E19083DF01119782E28C93119755
:1022900023E32C9311977C9211978C9211971C92A7
:1022A00011971C92119720E82C9311971C9211976B
:1022B0001C9211971C92119722E02C93119723E006
:1022C0002C93119724E02C93119725E02C931197D0
:1022D00026E02C93119727E02C93119728E02C935C
:1022E000119729E02C93119720E12C9311979C933F
:1022F000119792E19C93119793E19C93119794E12C
:102300009C93119795E19C93119796E19C9311975B
:1023100097E19C93119798E19C93119799E19C9375
:10232000119790E29C93119791E29C9311978C9353
:10233000119783E28C9311979C9211971C9311979C
:1023400086E28C93119787E28C93119788E28C93A5
:10235000119789E28C93119780E38C93119781E315
:102360008C93B997F983E883E114F10419F0F7012C
:10237000D183C0830FB6F8940F92809141038F5F91
:10238000809341038091720290917302892B09F02E
:102390006AC0D0937302C09372028091410381306E
:1023A00039F580E294E069D989E294E066D982E364
:1023B00094E063D98BE394E060D982E393E05DD944
:1023C00089E293E05AD983E493E057D980E293E01D
:1023D00054D98CE493E051D982E393E0909358036D
:1023E0008093570389E293E090935A0380935903B3
:1023F00080913B038F5F80933B038E8990914404CF
:10240000981710F480934404F9E08F9FC0011124C1
:10241000BE016E5F7F4F805E9B4F0E94EB090F9065
:102420000FBE80911A04882349F0E0917202F09166
:10243000730296898E89981708F492D981E003C0B7
:10244000C5013CDE8FEFDF91CF911F910F91FF907F
:10245000EF90DF90CF90BF90AF909F908F907F9044
:102460006F905F90089580911A048111C1CFE0911F
:102470007202F09173029E898689981708F4B8CF8A
:10248000D0937302C0937202B3CFEF92FF920F9377
:102490009EE3E92E93E0F92E00E030E020E040ECEE
:1024A00050E068E272E087EA92E08CDE813009F069
:1024B00060C02DDE80911B0490911C04892B09F4CF
:1024C00058C08CE3E82E83E0F82E03E030E020E0F3
:1024D00045E550E06DE272E085EF90E073DE81301B
:1024E00009F047C0F8942FEF3FEF30935603209345
:1024F000550380931A0410921E0410921D04A8958F
:1025000088E190EC0FB6F894A895809360000FBE18
:1025100090936000A0917202B0917302CD91CDBFF3
:10252000DD91DEBFFF91EF91DF91CF91BF91AF9130
:102530009F918F917F916F915F914F913F912F91DB
:102540001F910F91FF90EF90DF90CF90BF90AF90D1
:102550009F908F907F906F905F904F903F902F90C3
:102560001F900F900CBE0F900BBE0F900FBE0F90E0
:1025700008950F91FF90EF900895D6DB1895789409
:1025800084B5826084BD84B5816084BD85B5826078
:1025900085BD85B5816085BD80916E008160809329
:1025A0006E00109281008091810082608093810092
:1025B00080918100816080938100809180008160A2
:1025C000809380008091B10084608093B1008091FD
:1025D000B00081608093B000809191008260809310
:1025E0009100809191008160809391008091900092
:1025F0008160809390008091A10082608093A1000F
:102600008091A10081608093A1008091A0008160F1
:102610008093A000809121018260809321018091AC
:10262000210181608093210180912001816080934C
:10263000200180917A00846080937A0080917A00F2
:10264000826080937A0080917A00816080937A0022
:1026500080917A00806880937A001092C1000E9475
:102660008E0613DF0E948E060E94C004FDCFE3E7B2
:10267000F3E01382128288EE93E0A0E0B0E084835E
:102680009583A683B7838AE192E09183808385EC6A
:1026900090E09587848784EC90E09787868780EC2C
:1026A00090E0918B808B81EC90E0938B828B82EC1D
:1026B00090E0958B848B86EC90E0978B868B118EC7
:1026C000128E138E148E0895EE0FFF1F881F8BBF7E
:1026D0000790F691E02D19940F931F93CF93DF93FA
:1026E0008230910510F482E090E0E0914704F0918F
:1026F000480430E020E0B0E0A0E0309799F42115E4
:10270000310509F44AC0281B390B24303105D8F5AE
:102710008A819B816115710589F1FB019383828315
:10272000FE0111C040815181028113814817590770
:10273000E0F04817590799F4109761F012960C933E
:10274000129713961C933296CF01DF91CF911F9170
:102750000F9108950093470410934804F4CF211576
:10276000310551F04217530738F0A901DB019A01F6
:10277000BD01DF01F801C1CFEF01F9CF909348040B
:1027800080934704CDCFFE01E20FF31F8193919315
:102790002250310939832883D7CF209145043091C5
:1027A0004604232B41F420911202309113023093FE
:1027B0004604209345042091100230911102211506
:1027C000310541F42DB73EB74091140250911502E6
:1027D000241B350BE0914504F0914604E217F30702
:1027E000A0F42E1B3F0B2817390778F0AC014E5F81
:1027F0005F4F2417350748F04E0F5F1F5093460474
:1028000040934504819391939FCFF0E0E0E09CCF0B
:10281000CF93DF930097E9F0FC0132971382128285
:10282000A0914704B0914804ED0130E020E01097FA
:10283000A1F420813181820F931F209145043091B2
:1028400046042817390709F061C0F0934604E09365
:102850004504DF91CF910895EA01CE17DF07E8F52F
:102860004A815B819E0141155105B1F7E901FB8366
:10287000EA8349915991C40FD51FEC17FD0761F404
:10288000808191810296840F951FE9019983888345
:10289000828193819B838A83F0E0E0E012968D91A0
:1028A0009C9113970097B9F52D913C911197CD010B
:1028B0000296820F931F20914504309146042817F9
:1028C000390739F6309751F51092480410924704B1
:1028D000B0934604A0934504BCCFD383C283408108
:1028E0005181840F951FC817D90761F44E5F5F4F60
:1028F00088819981480F591F518340838A819B8128
:10290000938382832115310509F0B0CFF0934804F9
:10291000E09347049ECFFD01DC01C0CF13821282F9
:10292000D7CFFB01DC0102C001900D924150504015
:10293000D8F70895DC0101C06D9341505040E0F795
:062940000895F894FFCF9A
:10294600BF03BF03BF03BF03BF03BF03BF03BF0371
:10295600000049048000000000005504C003ED0398
:10296600A1041E04FC03100449444C4500546D7236
:10297600205376630048656C6C6F20576F726C64E9
:1029860021000D0A006379636C6548616E646C65AD
:10299600720048616E646C65496E4576656E747347
:1029A6000048616E646C654F75744576656E747328
:0229B60000001F
:00000001FF
