:100000000C9482000C9494000C9494000C94940032
:100010000C9494000C9494000C9494000C94940010
:100020000C9494000C9494000C9494000C94940000
:100030000C9494000C9494000C9494000C949400F0
:100040000C9473080C9494000C9494000C949400F9
:100050000C9494000C9494000C9494000C949400D0
:100060000C9494000C949400C302D206FA0230035C
:10007000A40367049D04D304F4042205D206EA0510
:100080006606BF032704C603D103E703F203FB039D
:10009000070410041C043E05A4054805500564052A
:1000A0006C05780581058D059605000000080002A5
:1000B000010000030407000000000000000001022E
:1000C00004081020408001020408102001020408E6
:1000D00010200404040404040404020202020202C4
:1000E000030303030303000000002300260029008C
:1000F00000000000250028002B0000000000240064
:1001000027002A0011241FBECFEFD8E0DEBFCDBFED
:1001100022E0A0E0B1E001C01D92A937B207E1F7EB
:100120000E9464080C94CB090C9400008091540246
:10013000811104C08CE392E00C942807089580910B
:100140006202811104C08CE392E00C9424070895AC
:10015000EF920F931F93E02E89019A01AB01BC012E
:1001600088E091E00E942C071F910F91EF90089575
:1001700088E091E00C9479070F931F934FE950E0CA
:1001800063E070E082E692E00E94E70146E950E019
:1001900062E070E084E592E00E94E70161E088E0BF
:1001A0000E942D0961E08CE00E942D0961E089E048
:1001B0000E942D0961E084E00E942D0961E085E044
:1001C0000E942D0961E086E00E942D0904E017E0FD
:1001D00024E130E040E050E060E171E088E091E04F
:1001E0000E94AD078CE392E00E9415028CE392E03E
:1001F0001F910F910C943102CF92DF92EF92FF92F8
:100200000E94BD086B017C0182E692E00E949F0182
:1002100084E592E00E949F01409104015091050104
:100220006091060170910701809100019091010198
:10023000A0910201B0910301452B462B472B59F0A9
:10024000AC01BD01465F5F4F6F4F7F4FC416D506AF
:10025000E606F70648F1B701A601481B590B6A0BE1
:100260007B0B88E091E00E94DA078CE392E00E9429
:100270005C02C0920001D0920101E0920201F09272
:1002800003018091040190910501A0910601B091B4
:1002900007010196A11DB11D8093040190930501F2
:1002A000A0930601B0930701FF90EF90DF90CF90ED
:1002B0000895CF93DF93EC010E941207882311F079
:1002C00061E001C060E089E00E946609CE010E9401
:1002D0001507882311F061E001C060E08CE00E9406
:1002E0006609CE010E941807882311F061E001C061
:1002F00060E088E00E946609CE010E941E07882304
:1003000011F061E001C060E084E00E946609CE0166
:100310000E942107882311F061E001C060E085E0C0
:100320000E946609CE010E941B07882311F061E03C
:1003300001C060E086E0DF91CF910C946609CF9216
:10034000DF92EF92FF920F931F93CF93DF93EC0115
:1003500089810E949C098C018F8190E00817190700
:1003600031F00E94BD08688779878A879B870E9441
:10037000BD08C884D984EA84FB846C197D098E0980
:100380009F09CB80DC80ED80FE80C616D706E8068C
:10039000F90678F4888190E00817190751F081E098
:1003A0000115110509F480E08883EC85FD85CE01F7
:1003B000099581E0012B09F480E08F83DF91CF91D3
:1003C0001F910F91FF90EF90DF90CF900895DF92F3
:1003D000EF92FF920F931F93CF93DF93EC01D62EF2
:1003E0007A0169837A8302E310E020E030E00B8336
:1003F0001C832D833E83862F0E949C0921E0892B3C
:1004000009F420E028831F82188619861A861B8625
:10041000FD86EC8660E08D2DDF91CF911F910F91CD
:10042000FF90EF90DF900C942D09FC018EE090E09E
:100430009183808313821282128613861486158616
:1004400016861786108A118A128A138A148A158AC8
:10045000168A178A148215821682178210861186D0
:1004600008950F93CF93DF93EC01BC01695E7F4F3A
:1004700001E028EC30E040E050E00E94A8001C823F
:100480001E821D8218861986BE016B5E7F4F00E0BA
:1004900024EF31E040E050E0CE010E94A80081E06E
:1004A0008D838F838CE090E0998388831B821A82EE
:1004B000DF91CF910F9108952F923F924F925F92CB
:1004C0006F927F928F929F92AF92BF92CF92DF9264
:1004D000EF92FF920F93CF93DF93CDB7DEB72C97B8
:1004E0000FB6F894DEBF0FBECDBF9C878B87DC01B3
:1004F00013961C921E9212972EE0622E712C569625
:10050000BA87A9875C01B5E1AB0EB11CFC017496FA
:10051000FA83E9831C01F3E12F0E311C42969C8380
:100520008B83AB85BC855196BE83AD83EB85FC8503
:100530007096F887EF834B845C84FFE04F0E511C6C
:100540008B849C848EE0880E911CEB84FC849CE060
:10055000E90EF11CCB84DC84ADE0CA0ED11CEB8526
:10056000FC8582819381892B09F028C4AB85BC85E9
:10057000ED91FC913197ED30F10508F013C4EC5C7E
:10058000FF4F0C94C509EB85FC858789882319F0FA
:10059000CF010E945901AB85BC851B968C911B979E
:1005A0008111E2C0AB85BC851A968C911A9788237D
:1005B00009F4F8C311967C926E9213961C921E92C7
:1005C000129700E028E53BE140E050E0B701CD01A3
:1005D0000E94A80024EF31E040E050E0B6018B8596
:1005E0009C850E94A80081E0EB85FC85878383E0E1
:1005F00090E0D4C3AB85BC8557968C9157978823E0
:1006000019F0CD010E945901EB85FC85838581118C
:1006100029C2AB85BC851C968C911C97811136C074
:10062000EB85FC858585882309F4BCC371826082D3
:1006300013821282B601CF010E94B80000E024EFBD
:1006400031E040E050E0B4018B859C850E94A80019
:10065000AB85BC8517961C92179784E090E00AC37F
:10066000EB85FC858789882319F0CF010E94590109
:10067000AB85BC851B968C911B97811175C0AB8592
:10068000BC851C968C911C978823E9F18D919C91D7
:100690008330910571F00497B1F4AB85BC85119658
:1006A0007C926E9213961C921E921297B401CD0109
:1006B00008C0EB85FC857182608213821282B601CC
:1006C000CF010E94B800B7018B859C850E94B800BD
:1006D000EB85FC85178200E020ED37E040E050E03C
:1006E000B201CF010E94A800AB85BC8514961C9274
:1006F000149781E015968C93159716961C92169771
:1007000085E090E0B7C2EB85FC858685882309F4F7
:1007100049C37182608213821282B401CF010E94A8
:10072000B80000E024EF31E040E050E0B6018B85F6
:100730009C850E94A80081E0AB85BC8517968C93B0
:10074000179783E090E096C2EB85FC858789882324
:1007500019F0CF010E945901AB85BC851B968C9185
:100760001B97882309F48CC0ED91FC913197EA30F6
:10077000F10508F06CC0EF5BFF4F0C94C509EB85E9
:10078000FC85718260821382128261C0AB85BC8558
:1007900011967C926E9213961C921E921297B6013D
:1007A0000AC0AB85BC8511967C926E9213961C9202
:1007B0001E921297B401CD010E94B800B7018B853B
:1007C0009C850E94B800EB85FC85178240C0AB85F4
:1007D000BC8511967C926E9213961C921E92129773
:1007E000B20128C0EB85FC8571826082138212827F
:1007F0006F81788529C0AB85BC8511967C926E92FD
:1008000013961C921E9212976D817E8113C0EB8508
:10081000FC8571826082138212826B817C8114C09C
:10082000AB85BC8511967C926E9213961C921E929B
:100830001297B101CD0109C0EB85FC857182608200
:100840001382128269817A81CF010E94B800AB8540
:10085000BC8514961C92149716961C9216971596A2
:100860001C92159718961C92189719961C92199716
:1008700000E024EF31E040E050E0B501CD0185C259
:10088000AB85BC851F968C911F97882309F48AC27B
:1008900011967C926E9213961C921E921297B20140
:1008A000CD010E94B80000E020ED37E040E050E0CC
:1008B0006F8178858B859C850E94A80081E0EB85FF
:1008C000FC8584831582168286E090E067C2AB8542
:1008D000BC8557968C915797882319F0CD010E94BB
:1008E0005901EB85FC8583858111BCC0AB85BC8536
:1008F00050968C915097882309F454C211967C929B
:100900006E9213961C921E9212976F817885CD017C
:100910000E94B80000E028E53BE140E050E06D8136
:100920007E818B859C850E94A800EB85FC851086C6
:1009300081E0818787E090E031C2AB85BC85579626
:100940008C915797882319F0CD010E945901EB85AE
:10095000FC858385811186C0AB85BC8551968C91C1
:100960005197882309F41EC211967C926E921396B9
:100970001C921E9212976D817E81CD010E94B8005B
:1009800000E028E833E140E050E06B817C818B851A
:100990009C850E94A80081E0EB85FC8580871186FC
:1009A00088E090E0FBC1AB85BC8557968C9157974A
:1009B000882319F0CD010E945901EB85FC858385C0
:1009C000811150C0AB85BC8552968C91529788237B
:1009D00009F4E8C111967C926E9213961C921E92B5
:1009E00012976B817C81E0C0AB85BC8557968C915A
:1009F0005797882319F0CD010E945901EB85FC859A
:100A0000838581112FC0AB85BC8553968C915397FC
:100A1000882309F4C7C111967C926E9213961C929A
:100A20001E921297B101CD010E94B800EB85FC85A2
:100A30001482158281E0868380871186178281E087
:100A400090E0ACC1AB85BC8557968C9157978823B5
:100A500019F0CD010E945901EB85FC85838588231F
:100A600009F491C00190F081E02D3197EA30F10551
:100A700008F06AC0E55BFF4F0C94C509AB85BC85E7
:100A800011967C926E9213961C921E9212975CC0E5
:100A9000EB85FC857182608213821282B60107C0E9
:100AA000EB85FC857182608213821282B401CF01D2
:100AB0000E94B800B7018B859C850E94B800AB8569
:100AC000BC8517961C9240C0EB85FC8571826082C4
:100AD00013821282B20128C0AB85BC8511967C922C
:100AE0006E9213961C921E9212976F81788529C080
:100AF000EB85FC8571826082138212826D817E811A
:100B000013C0AB85BC8511967C926E9213961C9295
:100B10001E9212976B817C8114C0EB85FC857182DB
:100B2000608213821282B101CF010CC0AB85BC85FB
:100B300011967C926E9213961C921E921297698166
:100B40007A81CD010E94B800EB85FC851482168263
:100B500015821086118600E024EF31E040E050E07D
:100B6000B501CF010E94A80081E0AB85BC85159638
:100B70008C93159717968C931797ECE0F0E01196ED
:100B8000FC93EE937AC0AB85BC8554968C915497B8
:100B9000882309F407C111967C926E9213961C92D9
:100BA0001E92129769817A81CD010E94B80000E0FF
:100BB00020ED37E040E050E0B1018B859C850E943C
:100BC000A80081E0EB85FC8584838583168289E01B
:100BD00090E0E4C0AB85BC8557968C9157978823ED
:100BE00019F0CD010E945901EB85FC85838588238E
:100BF00009F448C0808191818C30910561F00D9796
:100C0000B9F4EB85FC85718260821382128269855A
:100C10007A85CF010BC0AB85BC8511967C926E9214
:100C200013961C921E921297B501CD010E94B80036
:100C300000E020E137E240E050E069817A818B8575
:100C40009C850E94A80081E0AB85BC8514968C939E
:100C5000149715961C92159716961C92169718962F
:100C60008C93189719961C92199717961C921797A0
:100C70008AE090E011969C938E9313961C921E929C
:100C8000129790C0EB85FC858589882309F48AC07A
:100C90007182608213821282B501CF010E94B80076
:100CA00000E024EF31E040E050E069857A858B85F3
:100CB0009C850E94A800AB85BC8515961C92159753
:100CC00017961C9217978DE090E0D4CFEB85FC85AA
:100CD0008789882319F0CF010E945901AB85BC8513
:100CE0001B968C911B978823A9F18D919C918C3038
:100CF000910579F00D97B9F4AB85BC8511967C927E
:100D00006E9213961C921E92129769857A85CD0178
:100D100008C0EB85FC857182608213821282B50166
:100D2000CF010E94B80000E020E137E240E050E04F
:100D300069817A818B859C850E94A80081E0EB8582
:100D4000FC858483158216828087118617828AE04B
:100D500090E024C0AB85BC8556968C91569788232D
:100D600009F111967C926E9213961C921E92129724
:100D700069857A85CD010E94B80000E024EF31E05A
:100D800040E050E0B5018B859C850E94A80081E081
:100D9000EB85FC85858387838CE090E0918380835D
:100DA00013821282AB85BC8512968D919C9113970C
:100DB000019613969C938E931297D1CB128613862D
:100DC0001486158616861786108A118A128A138A47
:100DD000148A158A168A178A2C960FB6F894DEBFE5
:100DE0000FBECDBFDF91CF910F91FF90EF90DF90BD
:100DF000CF90BF90AF909F908F907F906F905F90BB
:100E00004F903F902F9008959C01245F3F4F6217B1
:100E100073073CF048966817790718F481E0FB01E6
:100E200080830895FC0184810895FC0185810895E3
:100E3000FC0186810895FC0187810895FC0180856D
:100E40000895FC018185089521E0FC012287089521
:100E500021E0FC01238708954F925F926F927F9269
:100E6000AF92BF92CF92DF92EF92FF920F931F93B8
:100E7000CF93CE2DDC014D905D906D907C90A12C98
:100E8000B12CC12CD12C7601C414D504E604F7048E
:100E900014F5DC011496ED91FC911597EA0DFB1DFC
:100EA000BFEFCB1ADB0AEB0AFB0AAFE0AA0EB11CBC
:100EB000A185B285AB2B41F752874187008311830F
:100EC00022833383C48374876387968785871582DB
:100ED000168217821086CF911F910F91FF90EF908D
:100EE000DF90CF90BF90AF907F906F905F904F90CA
:100EF0000895CF92DF92EF92FF920F931F93CF93BB
:100F0000DF936B01EC01088119812A813B81A0E00C
:100F1000B0E040E050E0BA014017510762077307A4
:100F20009CF4EC01EC81FD81EA0FFB1F4F5F5F4FEA
:100F30006F4F7F4F1F96E184F284EC14FD0461F73C
:100F40001286118614861386DF91CF911F910F911F
:100F5000FF90EF90DF90CF900895CF92DF92EF92C5
:100F6000FF920F931F93FC01DB0175836483208341
:100F7000318342835383C12CD12C7601C216D30610
:100F8000E406F50674F41A961C921E9219971E96A2
:100F9000FC93EE931D978FEFC81AD80AE80AF80A57
:100FA000EDCF178306831F910F91FF90EF90DF9095
:100FB000CF9008954F925F926F927F928F929F92FF
:100FC000AF92BF92CF92DF92EF92FF920F931F9357
:100FD000CF93DF93EC014A015B0100E010E0C12CEC
:100FE000D12C760188819981AA81BB81C816D90646
:100FF000EA06FB060CF056C0AC81BD81A00FB11F04
:1010000019966D917C911A976115710509F442C08A
:1010100015962D913D914D915C9118974D905D9055
:101020006D907C901397241535054605570594F56A
:10103000280D391D4A1D5B1D15962D933D934D932B
:101040005C93189724153505460557051CF11D9628
:10105000ED91FC911E970680F781E02D1B968D91F6
:101060009C911C970995EC81FD81E00FF11F848113
:10107000882381F085819681A781B0854081518147
:1010800062817381841B950BA60BB70B85839683B6
:10109000A783B0878FEFC81AD80AE80AF80A015F59
:1010A0001F4FA0CFDF91CF911F910F91FF90EF9035
:1010B000DF90CF90BF90AF909F908F907F906F9078
:1010C0005F904F90089508950E94C9080E94630898
:1010D0000E94BC00C0E0D0E00E94FC002097E1F339
:1010E0000E940000F9CF1F920F920FB60F921124A9
:1010F0002F933F938F939F93AF93BF9380917102F0
:1011000090917202A0917302B091740230917002BA
:1011100023E0230F2D3720F40196A11DB11D05C03A
:1011200026E8230F0296A11DB11D20937002809323
:10113000710290937202A0937302B0937402809133
:10114000750290917602A0917702B0917802019693
:10115000A11DB11D8093750290937602A093770232
:10116000B0937802BF91AF919F918F913F912F9152
:101170000F900FBE0F901F9018952FB7F8946091A5
:1011800071027091720280917302909174022FBF6C
:101190000895789484B5826084BD84B5816084BDEF
:1011A00085B5826085BD85B5816085BDEEE6F0E0E0
:1011B000808181608083E1E8F0E01082808182603C
:1011C0008083808181608083E0E8F0E080818160BD
:1011D0008083E1EBF0E0808184608083E0EBF0E0ED
:1011E000808181608083EAE7F0E080818460808391
:1011F000808182608083808181608083808180683B
:1012000080831092C1000895833081F028F48130EA
:1012100099F08230A1F008958730A9F08830B9F0B4
:101220008430D1F4809180008F7D03C08091800054
:101230008F7780938000089584B58F7702C084B53E
:101240008F7D84BD08958091B0008F7703C0809119
:10125000B0008F7D8093B0000895CF93DF9390E02E
:10126000FC01E254FF4F2491FC01EE52FF4F8491A8
:10127000882349F190E0880F991FFC01E650FF4F49
:10128000A591B49180519F4FFC01C591D4919FB716
:10129000611108C0F8948C91209582238C938881E9
:1012A00082230AC0623051F4F8948C91322F309529
:1012B00083238C938881822B888304C0F8948C913B
:1012C000822B8C939FBFDF91CF9108950F931F9333
:1012D000CF93DF931F92CDB7DEB7282F30E0F9010F
:1012E000E655FF4F8491F901E254FF4F1491F90143
:1012F000EE52FF4F04910023C9F0882321F0698347
:101300000E9404096981E02FF0E0EE0FFF1FE05119
:10131000FF4FA591B4919FB7F8948C91611103C0D0
:101320001095812301C0812B8C939FBF0F90DF917B
:10133000CF911F910F910895CF93DF93282F30E025
:10134000F901E655FF4F8491F901E254FF4FD49122
:10135000F901EE52FF4FC491CC2391F081110E940C
:101360000409EC2FF0E0EE0FFF1FEA51FF4FA591AB
:10137000B4912C912D2381E090E021F480E002C013
:1013800080E090E0DF91CF910895EE0FFF1F059070
:0A139000F491E02D0994F894FFCFCA
:00000001FF
